:100000000C943A000C9457000C9457000C94570031
:100010000C9457000C9457000C9457000C94570004
:100020000C9457000C9457000C9457000C945700F4
:100030000C9457000C94E3000C9457000C94570058
:100040000C9457000C9457000C947D000C945700AE
:100050000C9457000C9457000C9457000C945700C4
:100060000C9457000C9457006364696E6F7073753D
:1000700078585B0011241FBECFEFD8E0DEBFCDBFA4
:1000800014E0A0E0B1E0E8E0F1E102C005900D92DB
:10009000A638B107D9F726E0A6E8B4E001C01D9262
:1000A000A439B207E1F70E9465010C9482080C9410
:1000B0000000F89480918A04811108C083B78160A0
:1000C00083BF7894889583B78E7F83BFF89480919F
:1000D0008A04811102C07894ECCF10928A04809136
:1000E000C600789490E008959091C00095FFFCCFF1
:1000F0008093C60090E080E008958F9381E0809324
:100100008A048F9118951092C5001092C40086E061
:100110008093C20088E98093C100089584E292E050
:100120000E94800287EA91E60197F1F700C0000083
:10013000F89483B7816083BF8895FFCFCF93DF9317
:1001400000D000D0CDB7DEB7F894809186049091AE
:100150008704A0918804B091890420918400309193
:1001600085007894DC0199278827AC01BD01420FF6
:10017000531F611D711DCB01BA010F900F900F909D
:100180000F90DF91CF910895CF93C82F10928604DE
:1001900010928704109288041092890463E372E03D
:1001A000882311F060E372E08EE091E00E94650226
:1001B000CC2331F081E0809381007894CF91089531
:1001C00010928100FBCF1F920F920FB60F92112455
:1001D0002F933F934F935F936F937F938F939F934F
:1001E000AF93BF93EF93FF9380918D04811126C04D
:1001F0008091860490918704A0918804B09189042D
:100200000196A11DB11D8093860490938704A0934D
:100210008804B09389048091860490918704A0910A
:100220008804B091890488399105A105B10500F1D0
:1002300087E392E00E9480020E948E0020918B044E
:1002400030918C04E0911E02F0911F02E20FF31F27
:100250008081225E3E4FF90180830E94C40080911C
:100260008B0490918C04019690938C0480938B0462
:10027000FF91EF91BF91AF919F918F917F916F917E
:100280005F914F913F912F910F900FBE0F901F9054
:1002900018959F938F938DE492E09F938F930E9484
:1002A000AC020F900F900F900F9008958EE091E0A8
:1002B0009F938F9383E592E09F938F930E946C02AC
:1002C0000F900F900F900F9008950E94830080E090
:1002D00091E0909391068093900690938F0680937F
:1002E0008E061092800081E080936F008FE592E08F
:1002F0000E9480028CE692E00E94800290E080E002
:100300000E9459008A3011F00E948E0081E00E9404
:10031000C400CAEAD2E009EB12E021ECE22E22E0AE
:10032000F22E0E9456010E949E009F938F937F930E
:100330006F93DF93CF930E946C021F930F930E94E1
:100340006C028EE894E00E944901FF92EF920E94B5
:100350006C028EE895E00E9449016CEC72E08EE838
:1003600094E00E945C022DB73EB7265F3F4F0FB668
:10037000F8943EBF0FBE2DBF892B09F04FC060918E
:100380002202709123028EE895E00E945C02892B84
:1003900009F044C082ED92E00E948002F89480E06F
:1003A0000E94C400789481E080938D04CAE4D3E075
:1003B00007E713E083E5E82E83E0F82E9CE5C92EDD
:1003C00093E0D92E0E94560187EF92E00E948002AE
:1003D0008DEF92E00E94800283E193E00E94800210
:1003E00088E293E00E94800281E493E00E94800210
:1003F000DF93CF930E946C028EE894E00E94490143
:1004000080918E040F900F90833349F164F481330F
:1004100071F08233B9F08BED93E039C082EE92E057
:100420000E9480027ECF843309F46ECFF4CFFF9216
:10043000EF920E946C028EE191E00E9449010F90C0
:100440000F90C0CF8EE191E09F938F93DF92CF9278
:100450000E946C020F900F900F900F90B3CF1F93DC
:100460000F930E946C028EE894E00E944901E09193
:100470002002F0912102AEE8B4E00F900F9080E0EE
:100480002191211107C0882349F08BE993E00E9454
:10049000800298CF9D919227892BF2CF8AEA93E030
:1004A0000E94800281E00E94C4008091810081113D
:1004B000FCCF85ED93E0EBCFFB01DC018D9101904A
:1004C00080190110D9F3990B0895FB01DC0101900B
:1004D0000D920020E1F70895B0E0A0E0E2E7F2E03D
:1004E0000C945B08FE01359661917191AF0180918A
:1004F0009006909191060E94C002E2E00C94770869
:100500000F931F93CF93DF93E0919006F0919106A4
:10051000238100E010E021FD0EC00FEF1FEFC801A6
:10052000DF91CF911F910F9108950995892B11F0BB
:100530000FEF1FEFCE01EC01899160919006709151
:100540009106DB011896ED91FC918111EECF8AE0C6
:100550000995892B21F3E1CFB0E0A0E0E2EBF2E0D6
:100560000C945B08FE01359661917191AF01809109
:100570008E0690918F060E941A06E2E00C9477088E
:10058000AFE0B0E0E6ECF2E00C944B087C013B01FC
:100590008A01DC0117961C921E92169713968C9175
:1005A00081FFBEC19AE0292EFE0131964F01D7018D
:1005B00013969C91F30193FD859193FF81913F01E7
:1005C000882309F444C1853239F493FD859193FF62
:1005D00081913F01853229F4B70190E00E94A20782
:1005E000E6CFB12C412C512CBFE1B51538F08B3240
:1005F00009F188F4803201F1833221F157FC3AC0CD
:1006000020ED280F2A3040F556FE1FC0B29C200D69
:100610001124B22E06C08D3291F0803379F76894A0
:1006200050F8F30193FD859193FF81913F01811172
:10063000DBCF20C0689451F8689452F8F2CF6894E8
:1006400053F8EFCF689454F8ECCF429C200D11245E
:10065000422E689455F8E5CF8E3229F456FCF7C047
:10066000689456F8DECF8C3619F4689457F8D9CFD1
:100670008836B9F2982F9F7D95549330C0F0833619
:10068000A1F18337C1F1833509F05BC0D801CD906A
:10069000DD908D016B2D70E056FC02C06FEF7FEF97
:1006A000C6010E944E075C01689457F80AC00C5FAF
:1006B0001F4FEFE3E983AA24A394B12C6401E894CB
:1006C00057F853FC04C04A141B0409F018F5342CE5
:1006D000A114B10431F5332009F469CFB70180E2E8
:1006E00090E00E94A2073A94F6CFD8018C918983BA
:1006F0000E5F1F4FE0CFF801C190D1908F016B2D9D
:1007000070E056FC02C06FEF7FEFC6010E945907F0
:100710005C01D5CFB70180E290E00E94A2074A9425
:10072000D2CFF60157FC859157FE81916F01B70139
:1007300090E00E94A20731103A94B1E0AB1AB108E0
:10074000C7CF843619F0893609F071C0F80157FE19
:1007500067C061917191819191918F01E52DEF7643
:10076000DE2E97FF09C090958095709561957F4F1B
:100770008F4F9F4F6894D7F82AE030E0A4010E9481
:10078000EA07C82EC818AC2C5D2CD6FE0CC0E89425
:1007900050F8CB1440F4D4FE05C0D2FC03C05D2D4C
:1007A0005E7E552EAB2C54FE93C0FE01EC0DF11D68
:1007B0008081803309F085C0652D697E562E752DA8
:1007C0007870372E53FC93C050FE8DC0BC2CA414FF
:1007D00010F4B40CBA1854FE90C0B70180E390E056
:1007E0000E94A20752FE07C088E751FC88E590E00E
:1007F000B7010E94A207CB1408F48BC0CA94D12C75
:100800008FEFC81AD80AC80CD91CD6018E916D0179
:10081000B70190E00E94A2078C149D04B1F75BCF52
:1008200061917191072E000C880B990B96CFD52CF6
:10083000E894D4F82AE0853729F1F52DF97FDF2EE9
:100840008037A1F058F48835A1F08F36D1F0F70148
:10085000868197812F96E2E10C9467088837B9F773
:10086000D4FE02C06894D2F820E10CC06894D4F899
:10087000F7CF54FE03C02F2F2660D22E20E132E0A6
:1008800002C028E030E0F801D7FE15C04191519137
:10089000619171914C875D876E877F878F01A4017D
:1008A0006C857D858E859F850E94EA07C82EC818B5
:1008B000E894D7F868CF81919191AC0170E060E045
:1008C000E9CF52FC02C0A3947ACFA394A39477CF2C
:1008D000852D867809F473CFF6CFB70180E290E0DA
:1008E0000E94A207A394A414C0F3312C74CF342C1B
:1008F0003A18A41408F46FCFF8CF852D867809F440
:100900007ACF8BE251FE80E257FC8DE2B70190E096
:1009100070CFB70180E390E00E94A207BA946BCF3A
:100920008FEF9FEF97CFFC01CA01DB0120FD08C0CC
:1009300023FD05C022FF02C0B383A283918380837D
:100940000895CF92DF92EF92FF92CF93DF9300D082
:1009500000D0CDB7DEB76B017C0183E044FD10C051
:1009600084E046FD0DC0D601F701AA0FBB1FEE1FA4
:10097000FF1F1094D1F7CA0EDB1EEE1EFF1E81E092
:10098000CC0CDD1CEE1CFF1C8150D1F7D701C60139
:10099000820F911DA11DB11DBC01CD010F900F90C3
:1009A0000F900F90DF91CF91FF90EF90DF90CF905D
:1009B00008950F931F93CF93DF938C01C8010E947A
:1009C0006407EC0197FD08C00E943A07892BB1F734
:1009D000B801CE010E94D207CE01DF91CF911F91C5
:1009E0000F910895B0E0A0E0E8EFF4E00C94530814
:1009F0008C01C62F5A01F22E0E946407FC01992730
:100A0000EB3221F08D9781F46894F7F8C15031F4FE
:100A100080E0CDB7DEB7EAE00C946F08C8010E9411
:100A20006407FC0197FDF4CFDF2DDD7F8F2D8073F0
:100A300009F5E033F9F4EE24EA94EC0EC13091F0BC
:100A4000C8010E946407FC0197FD0CC08F7D8835AA
:100A500069F4D264C25031F0C8010E946407FC01FD
:100A600097FF08C0C12CD12C76011CC0F6FE2CC00B
:100A7000D260CE2DC12CD12C760120ED2E0F283046
:100A800030F1D4FD09C02A3010F1D6FF05C02F7D0A
:100A90008FEE820F8630D0F0B801CF010E94D207CE
:100AA000D1FFB6CFD7FF08C0F094E094D094C094A3
:100AB000C11CD11CE11CF11C2D2FB701A601C501E1
:100AC0000E94930481E0A5CFD261D3CF27504D2F50
:100AD000C701B6010E94A1046B017C01D260C15024
:100AE00009F3C8010E946407FC0197FFC6CFDACF63
:100AF000A0E2B0E0EEE7F5E00C9451086C01962E10
:100B00007A01CE0101965C0180E2F50111928A958D
:100B1000E9F7F6018380890150E040E0B0E020E091
:100B2000A0E061E070E0F80183FC959183FE919173
:100B3000892F8F01911107C010E000E0C801A09635
:100B4000ECE00C946D089E3519F44115510531F116
:100B5000A4171506ECF49D3549F19D32C9F4222302
:100B600009F1982F969596959695F501E90FF11D47
:100B7000982F97709B0101C0220F9A95EAF79081F8
:100B8000292B20838B1781F08B1730F48F5FE9CFEF
:100B90002111E7CFB92FE5CF8150E3CFA1E04F5F1F
:100BA0005F4FC1CF21E0FBCF20E0F9CF222319F026
:100BB0008E8180628E83AA2361F0F5019E012F5DF4
:100BC0003F4F8081DF01319680958C93E217F307C8
:100BD000C1F788248394C6010E94640797FD16C05C
:100BE000282F269526952695F501E20FF11D2081E7
:100BF00030E0AC014770552702C0359527954A95DE
:100C0000E2F720FD06C0B6010E94D207882059F005
:100C100093CFE114F10419F0F70181937F019A94C5
:100C2000812C9110D8CFE114F10409F487CFF7019A
:100C3000108284CFA6E0B0E0E0E2F6E00C944F082A
:100C40005C016D837E83742E652EDC0117961C92E9
:100C50001E921697C12CD5011396FC90ED81FE8152
:100C6000F3FC8591F3FE8191182FFE83ED83882399
:100C7000F9F090E00E943A07892B21F0C5010E940B
:100C8000D904E9CF153251F4ED81FE81F3FC1591C1
:100C9000F3FE1191FE83ED83153269F4C5010E94C4
:100CA000640797FDA3C01817B1F2B5010E94D207DF
:100CB0008C2D90E09FC000E01A3249F4ED81FE8156
:100CC000F3FC1591F3FE1191FE83ED8301E0D12C2D
:100CD00020ED210F2A3060F101FF42C0DD2041F3F9
:100CE000183609F440C01C3609F449C0112301F339
:100CF000612F70E088E690E00E944307892BC1F2E3
:100D0000E12CF12C00FD06C0E72DF62DE190F190CD
:100D10007E2E6F2E1E3609F03CC0D50116964D91E1
:100D20005C9170E060E0202FC7010E94930493CF94
:100D300002608D2D90E0B0E0A0E089839A83AB83C0
:100D4000BC8340E2BC01CD010E94A104D62EED81FE
:100D5000FE81F3FC1591F3FE1191FE83ED83B8CF74
:100D6000DD24DA94BDCFED81FE81F3FC1591F3FE15
:100D70001191FE83ED83183609F0B8CF0860046046
:100D8000ED81FE81F3FC1591F3FE1191FE83ED835D
:100D9000ADCF1336B1F401FD02C0DD24D394C501FB
:100DA0000E94640797FD22C0E114F10419F0F701D5
:100DB00081937F01DA94D110F2CF00FD4CCFC39420
:100DC0004ACF1B35D9F42D813E81A7016D2DC50178
:100DD0000E9478058D839E83ED81FE81EF2B69F75C
:100DE000D50113968C91807309F462CF8FEF9FEF3A
:100DF000C1105ECF2696EEE00C946B08C5010E94F0
:100E0000D90497FDF3CF1F3699F130F4143641F031
:100E1000193639F0006405C01337A9F01537D1F73A
:100E20000062202FA7016D2DC5010E94F2048111DF
:100E3000C4CFD6CFE114F10419F0F70181927F01FC
:100E4000DA94DD2071F0C5010E9464074C0197FD22
:100E500008C00E943A07892B69F3B501C4010E94BA
:100E6000D207E114F10409F4A8CFF7011082A5CF4D
:100E70000061D7CF91110C944808803219F0895045
:100E80008550C8F70895FC010590061621F0002052
:100E9000D9F7C00108953197CF010895FC0105905D
:100EA000615070400110D8F7809590958E0F9F1F6C
:100EB0000895FC016150704001900110D8F78095B1
:100EC00090958E0F9F1F0895CF93DF93EC018B8138
:100ED00080FF33C086FF0CC08F7B8B838E819F8108
:100EE00001969F838E838A8190E0DF91CF91089550
:100EF00082FF15C0E881F9819081292F092E000C0D
:100F0000330B80629923C1F03196F983E8838E8197
:100F10009F8101969F838E83C9019927E6CFEA8539
:100F2000FB85CE0109959C0197FFF1CF8B812F3F67
:100F30003F4F31F090E2892B8B838FEF9FEFD5CF1E
:100F400090E1F9CF0F931F93CF93DF93182F092FC1
:100F5000EB018B8181FD09C01FEF0FEF812F902FD7
:100F6000DF91CF911F910F91089582FF14C02E81C0
:100F70003F818C819D81281739073CF4E881F981F4
:100F8000CF0101969983888310838E819F8101967A
:100F90009F838E83E3CFE885F985812F0995892B7F
:100FA000A1F3DACFFB01238120FF11C026FD0FC082
:100FB0008F3F980771F082832F7D206423832681E1
:100FC00037812150310937832683992708958FEF80
:100FD0009FEF0895FA01AA27283051F1203181F1BD
:100FE000E8946F936E7F6E5F7F4F8F4F9F4FAF4F31
:100FF000B1E03ED0B4E03CD0670F781F891F9A1F44
:10100000A11D680F791F8A1F911DA11D6A0F711DF7
:10101000811D911DA11D20D009F468943F912AE003
:10102000269F11243019305D3193DEF6CF010895EB
:10103000462F4770405D4193B3E00FD0C9F7F6CF1C
:10104000462F4F70405D4A3318F0495D31FD4052E4
:10105000419302D0A9F7EACFB4E0A695979587957A
:1010600077956795BA95C9F7009761057105089559
:101070009B01AC010A2E0694579547953795279505
:10108000BA95C9F7620F731F841F951FA01D08959D
:101090009927882708952F923F924F925F926F92DF
:1010A0007F928F929F92AF92BF92CF92DF92EF92F8
:1010B000FF920F931F93CF93DF93CDB7DEB7CA1B79
:1010C000DB0B0FB6F894DEBF0FBECDBF09942A88A4
:1010D000398848885F846E847D848C849B84AA844C
:1010E000B984C884DF80EE80FD800C811B81AA81D9
:1010F000B981CE0FD11D0FB6F894DEBF0FBECDBFA4
:08110000ED010895F894FFCF02
:1011080000000003000000007400590000006F6632
:1011180066000000000000000000000000004F70A2
:1011280065726174696F6E2053494552524120546B
:10113800414E474F20524F4D454F3A0A526164691C
:101148006F206672657175656E63793A2031332E4A
:1011580033374D487A0A5265636569766564206D50
:101168006573736167653A2041545441434B20418C
:1011780054204441574E0A000000000000000000BF
:101188000000000000000000000000000000000057
:101198000000000000000000000000000000000047
:1011A8000000000000000000000000000000000037
:1011B8000000000000000000000000000000000027
:1011C8000000000000000000000000000000000017
:1011D8000000000000000000000000000000000007
:1011E80000000000000000000000000000000000F7
:1011F80000000000000000000000000000000000E7
:1012080000000000000000000000000000000000D6
:101218000000000000000000000000000000EB03D8
:10122800450470045175697474696E672E2E2E001A
:101238006F6E006F66660054696D6564206F757423
:10124800206C6F6767696E6720696E2E00253230E3
:1012580030730054696D65723A2025732E0A00496F
:101268006E697469616C697A65642E0057656C6390
:101278006F6D6520746F20736563726574206D6986
:101288006C69746172792064617461626173652E3E
:1012980020507265737320454E54455220746F2058
:1012A800636F6E74696E75652E00557074696D652F
:1012B8003A20256C6475730A004C6F67696E3A2092
:1012C8000050617373776F72643A20006167656ECE
:1012D8007400416363657373206772616E7465643B
:1012E8002E0057726F6E6720757365722F70617369
:1012F80073776F72642E004D656E753A00312E203B
:1013080053746F72652073656372657420646174C9
:10131800612E00322E205265616420736563726508
:101328007420646174612E00332E20436F7079201D
:10133800746F702073656372657420646174612EC4
:1013480000342E20457869742E0043686F69636500
:101358003A20005365637265743A200053746F72C3
:101368006564207365637265743A0A2D2D2D0A250C
:10137800730A2D2D2D0A00456E74657220746F70E6
:1013880020736563726574206461746120616363AE
:1013980065737320636F64653A2000416363657306
:1013A800732064656E6965642E00416363657373B9
:1013B800206772616E7465642E0A436F7079696E76
:1013C8006720746F7020736563726574206461743C
:1013D800612E2E2E00446F6E652E00496E76616C6C
:1013E8006964206F7074696F6E2E00494E54454CC5
:1013F8004C4947454E4345205245504F52543A0AAE
:10140800464C41472043415054555245442046528A
:101418004F4D20454E454D592E0A464C41472049CF
:1014280053204354467B5F5245414C5F464C4147ED
:101438005F49535F4F4E5F5448455F534552564589
:10144800525F7D2E00544F505345435245545F50D0
:10145800415353574F52445F414C534F5F52454499
:1014680041435445445F544F5053454352455400FB
:1014780050415353574F52445F524544414354459A
:06148800445F58595A00B0
:00000001FF
